:020000040800F2
:1000000000500020C9A6000811A7000811A7000889
:1000100011A7000811A7000811A7000800000000A0
:1000200000000000000000000000000011A7000810
:1000300011A700080000000011A70008E550000803
:1000400011A7000811A7000811A7000811A70008B0
:1000500011A7000811A700088D4E0008694E00087E
:10006000454E0008214E0008FD4D000811A700086C
:1000700011A7000811A7000811A7000811A7000880
:1000800011A7000811A7000811A7000811A7000870
:1000900011A7000811A7000811A70008B14D00081A
:1000A00011A700080526000811A7000811A70008DD
:1000B00001260008FD250008F925000895250008FF
:1000C0008D250008852500087D25000811A700085A
:1000D00011A70008A91C0008911C0008751C000845
:1000E000594D00082D4D000811A700080000000020
:1000F0000000000000000000000000000000000000
:0C01000000000000000000005FF808F1A3
:10010C0010B5054C237833B9044B13B10448AFF345
:10011C0000800123237010BDE400002000000000CB
:10012C00CCA900080C4B43B10C4810B50C49AFF3EB
:10013C0000800C48036823B910BD0A48036833B922
:10014C007047094B002BF7D0BDE810401847064B01
:10015C00002BF5D0184700BF00000000CCA9000808
:10016C00E8000020E4000020000000002DE9F0472A
:10017C000446884616461D46036882B0BDF82C70AE
:10018C00DB68BDF92890984723680097D3F81CA02A
:10019C0032462B4641462046D047236809F1FF32B0
:1001AC0000973244D3F81CA041462B46204612B28D
:1001BC00D04723680097D3F818A032464B464146E7
:1001CC002046D0472068691E009741444B468569FC
:1001DC0009B220463246A847204623685B6A02B023
:1001EC00BDE8F047184700BFF0B5994285B0064608
:1001FC00BDF92850BDF82C7028D0AA421C4614D04A
:10020C00036803920291DB68984730688DE8A00080
:10021C002346039A046A02993046A0473046336855
:10022C005B6A05B0BDE8F0401847994202DD0B4609
:10023C0021461C4630680A97631C446B3046A44622
:10024C005B1A1BB205B0BDE8F0406047AA4202DD64
:10025C0013462A461D4630680A97046B3046A4465E
:10026C006B1C9B1A1BB205B0BDE8F040604700BF89
:10027C00002230B5B0F90E5083B00468019100959E
:10028C00B0F90C30A46B1146A04703B030BD00BFD1
:10029C002DE9F0470C46016882B01F19CB68054662
:1002AC009246BDF92890BDF82C809847BC420CDAD8
:1002BC002B682146CDF8008001349E6952464B468E
:1002CC00284624B2B047BC42F2DB28462B685B6A56
:1002DC0002B0BDE8F04718472DE9F04F904683B0C7
:1002EC00BDF930505A1A1E46A5EB0803002BB8BFB7
:1002FC005B42002AB8BF524293420746BDF834A075
:10030C006EDCAE464446AC4640463546884676469C
:10031C0021469946A84551DD4FF6FF7EB142C8BF34
:10032C004FF0010EA8EB0504A4B2A0EB0C00009456
:10033C0024B204EBD47480EAE079A9EBE079641080
:10034C00CDF804E093421FFA89F926DC08E0019A03
:10035C00A8451644009A36B202EB030424B211DB12
:10036C003A685346D2F810B02946A4EB0904324639
:10037C003846D847A3B21CB20135002C2DB2E6DBAF
:10038C00A845EDDA03B0BDE8F08F019A1644009A47
:10039C0036B2D41824B2A845F4DB3A685346D2F8E6
:1003AC0010B0A4EB09042A4631463846D847A3B20C
:1003BC001CB20135002C2DB2EDDAE6E7A5EB0800F6
:1003CC0080B204B204EBD474B14200904FEA6404DE
:1003DC0028460E46454607DA012180460191B1E7D1
:1003EC00B4460846914695E74FF6FF718046019159
:1003FC00A8E700BF2DE9F04F06469A4688460368E9
:10040C0083B0DB681746BDF83090984732681FFA06
:10041C008AF303F1FF3A156A1F491FFA8AFA0AEBAD
:10042C0008048D4224B22FD1A04524DDC3F1010371
:10043C001FFA83FA0FFA8AF505EBD5756D1002E0F9
:10044C00A04511DB3268D2F810B021464B463A4633
:10045C003046D8470134002D24B2F1DA013F55441F
:10046C00A0453FB22DB2EDDA304633685B6A03B07B
:10047C00BDE8F04F184743460FFA8AF505EBD575E2
:10048C00A0466D101C46DEE78DE8800223463A46F6
:10049C0041463046A847E7E7E50200082DE9F04F52
:1004AC00064691461C46036883B0DB680F46BDF8D0
:1004BC00308098473268631E1FFA89FA156A2C49F6
:1004CC0053449BB28D421CB244D1A1452AD049DD84
:1004DC00AAEB040A1FFA8AFA0FFA8AF505EBD5750E
:1004EC004C454FEA650503DD16E04C4513DC3268DC
:1004FC00D2F810B04346224639463046D84701342C
:10050C00002D24B2ABB2F0DA013F03EB0A054C45E7
:10051C003FB22DB2EBDD32683046536A03B0BDE812
:10052C00F04F18473D464FF0000900E03268D2F812
:10053C0010A02946224643463046D0470135B9F132
:10054C00000FB8BF04F1FF342DB2B8BF24B2AF42D4
:10055C00ECDAE0E78DE810014A463B463946304676
:10056C00A847D8E721469A464C468946B0E700BFD3
:10057C00E5020008704700BF70B4BDF90C60BDF80F
:10058C001050046803960495A46BA44670BC604795
:10059C0030B4BDF8085004680295646BA44630BCB6
:1005AC00604700BF30B4BDF8085004680295246B56
:1005BC00A44630BC604700BF034A1368B3FA83F308
:1005CC005B091360704700BF00010020704700BF3B
:1005DC002DE9F041D0F800C0DFF838E1DCF8086014
:1005EC0082B0764512D100290D460CDB9846B0F945
:1005FC000C3004468B4206DD002A174603DBB0F9AB
:10060C000E30934207DC02B0BDE8F081B44602B074
:10061C00BDE8F0416047DCF80C30984701232068B6
:10062C000093A9B2BAB2C56C2046A847636B4FEAD7
:10063C001821002B2EDB204602F04EFA5FFA88F1CF
:10064C00204602F049FA2368304A5B6A93421CD177
:10065C00226D236E11680B431360636B002BD2DA8F
:10066C00236AB3F90020232A44D0B3F90C20232A9F
:10067C0035D0B3F91820232A23D0B3F92420232A08
:10068C0011D04FF6FF721A86BDE7204602B0BDE8C6
:10069C00F0411847206A00F08BFF5FFA88F1206A5E
:1006AC0000F086FFCFE701224FF6FF7400201849B7
:1006BC009C8483F82C2083F82E2083F82D009962DB
:1006CC00DFE701224FF6FF74002011491C8383F8E9
:1006DC00202083F8222083F82100D961CDE7012264
:1006EC004FF6FF7400200A499C811A759A7558754B
:1006FC001961BEE701224FF6FF74002004491C80EB
:10070C001A729A7258725960AFE700BFC12800087C
:10071C0000093D00492C000838B50546282208463A
:10072C000C4600210AF026F8AB681A7D152A42D037
:10073C00162A3AD00B2A21D00B22224920460AF045
:10074C0029F9002301210C22E372E868AB682061CF
:10075C00E16062611B7D152B15D0162B13D00B2B72
:10076C001AD0194A152B62620FD0162B0DD00B2BF9
:10077C0014D00023A361E361236238BD13492046E2
:10078C000AF008F9DDE7104B636200221049114BA7
:10079C00A161E261236238BD0F4B63620F49104ABD
:1007AC00104BA161E261236238BD0B220E49204639
:1007BC000AF0F0F8C5E70B220C4920460AF0EAF8DB
:1007CC00BFE700BFD8DA000880841E00C0DA00083A
:1007DC000000C842CDCCCC3D40420F000000A042EE
:1007EC000000A0410000A040D0DA0008C8DA0008E0
:1007FC0038B50546282208460C46002109F0BAFFF8
:10080C00AB681A7D152A47D0162A3FD00B2A21D067
:10081C000B22244920460AF0BDF8002301210D22A9
:10082C00E372E868AB682061E16062611B7D152BA7
:10083C0028D0162B1DD00B2B11D01B4A152B626206
:10084C0022D0162B17D00B2B0BD00023A361E36106
:10085C00236238BD154920460AF09CF8DDE7144B9D
:10086C00636200224FF080431249E261A16123626E
:10087C0038BD0D4B63621049104A114BA161E26106
:10088C00236238BD084B63620E49F5E70B220E4913
:10089C0020460AF07FF8C0E70B220C4920460AF0EC
:1008AC0079F8BAE7D8DA000880841E00C0DA0008AC
:1008BC0040420F00000048420000FA42000020C2F3
:1008CC00CDCCCC3D0000A042D0DA0008C8DA00083C
:1008DC0070B5242605460C4632460846002109F020
:1008EC0049FF0C221D4BE9681B68AD6826606160EE
:1008FC00A2602361284600F023FD00B3AB790B2BDB
:10090C0021D01CD3153B012B19D8287807F0D2F82D
:10091C004FF0874107F026F90646687807F0CEF8C5
:10092C00314607F017F806F0E7FB0AA3D3E90023DA
:10093C0006F036FC06F02CFF6061012070BD084803
:10094C006061012070BD287807F0B4F86061012067
:10095C0070BD00BF9A9999999999B93F20010020CF
:10096C000000C07FF8B5242605460C4632460846E2
:10097C00002109F0FFFE0D22204BE9681B68AD68D1
:10098C0026606160A2602361284600F0D9FC20B388
:10099C00AB790B2B25D020D3153B012B1DD8AE7872
:1009AC0006F07F0007F08AF84FF0874107F0DAF87D
:1009BC000746E87807F082F8394606F0CBFF06F0D8
:1009CC009BFB0CA3D3E9002306F0EAFB06F0E0FE48
:1009DC00330603D500F1004000E0094860610120B6
:1009EC00F8BDA87807F066F860610120F8BD00BF7B
:1009FC00AFF300809A9999999999B93F20010020F9
:100A0C000000C07F10B5044609F0BCFE204610BDA6
:100A1C0010B5044609F0B6FE204610BD2DE9F04F86
:100A2C0093B00292BDF8702008900992C0699DF8AD
:100A3C0078200A91BDF874B00C92002800F0B880B0
:100A4C00027A41689B1ADBB201EBC30231F83380A6
:100A5C00D37892F802B00D9392F9064092F90530D2
:100A6C000C9A0068012A0390119340F39D801BB2ED
:100A7C000B9323B20E9308980368DB6898470D9B81
:100A8C00002B58D0002399469A46BDF808200493B1
:100A9C000F9222441092BBF1000F45D00E9A0C9885
:100AAC000F99134482B203FB0213059201281AB268
:100ABC0006924FF0000645D003B2314609F101070A
:100ACC00079307E00134E1B24FEA4A0A59455FFA4D
:100ADC008AFA27DAF4B2E51904EB0903EAB213F047
:100AEC00070F029206F1010606D1039A08F10103E1
:100AFC0012F808A01FFA83F81AF0800FE2D00B9BB3
:100B0C000A9A1944059B089801FB0321099A03686A
:100B1C000192079A09B200925B691D461346069A28
:100B2C00A847CFE7029DA946049B0D990133DBB280
:100B3C008B420493AFDB089803685B6A13B0BDE883
:100B4C00F04F1847109B049A09F1010713441BB28C
:100B5C00059307E00134E4B24FEA4A0A5C455FFAB8
:100B6C008AFADFDAF4B2E51909EB0403EAB213F0FE
:100B7C00070F029206F1010606D1039A08F1010350
:100B8C0012F808A01FFA83F81AF0800FE2D0119B1C
:100B9C000A9A08989918036821441B6909B21D46E2
:100BAC00059A099BA847D5E700230E930B9362E7A0
:100BBC000C460899B1F90C20A24272DDB1F90E2055
:100BCC00029DAA426DDD0C9E06EB460204EB42022E
:100BDC00002A66DD05EBC602002A62DDCA7E002A09
:100BEC0040F09680AF2B40F393800A460133DCB281
:100BFC0005230B9300231046069391461368BDF80A
:100C0C000820DB6815460E92984704EB84020D927F
:100C1C00BDF8282005F1080307929AB203920C9AAA
:100C2C00CDF810B01FFA82FA0FFA82F8069F0798D7
:100C3C00BBB20AFB03013E4A03440D980E9D3A4495
:100C4C00175C1BB20AB22C462E4605920A931AE088
:100C5C000C9B2AB2012B27D0D9F8003009990191AD
:100C6C00CDF80080D3F814B0059943464846D847D0
:100C7C000134039BA4B255445644A342ADB2B6B260
:100C8C004FEA57071AD0FB07E2D4049A099B934208
:100C9C0032B2EDD00C9B012B36D0D9F80030049930
:100CAC00DDE713B0BDE8F08FD9F80020099BD2F82E
:100CBC0010B00A9922B24846D847D9E7069A0B9B3E
:100CCC000132013B52B213F0FF0306920B93ADD1EC
:100CDC00DDF810B0099B5B453FF42DAF0C9B012B4D
:100CEC0019D0079A0AEB8A010A441146089D4FEA6B
:100CFC00CA0328680093CDF804B044690C9B029A8F
:100D0C0009B22846A04716E7D9F80020049BCEE785
:100D1C001C46089A6CE70898079903680531CDF8CA
:100D2C0000B09C6909B2029A0823A04703E700BFF0
:100D3C00BCD00008704700BF10B50446806A09F0AB
:100D4C0021FD204610BD00BF704700BF2DE9F04FBC
:100D5C00A74C83B094F82130012B00F0FD80A54DF9
:100D6C00DFF8BC92D5F80080A34FA44EC4F81C90B9
:100D7C0006E02B68A3EB0803B3F57A7F80F0CA80FA
:100D8C000023A06984F8203002689368BB4240F0CD
:100D9C009A80B0F8F430B0F8F6105B1A9B06E8D0E5
:100DAC00D368B34240F09880B0F8F430B0F8F62035
:100DBC009BB2934200F01782D0F8F030511C9B5C30
:100DCC0001F03F02A0F8F62094F82220D8B2032AB2
:100DDC0000F28580DFE802F0726B5F0280B2A38CB8
:100DEC00034323F00802142AA38400F08E8000230E
:100DFC0084F8223094F82020012ABAD1804CB9F81A
:100E0C000610B9F80A20B9F80830B9F80C002160BE
:100E1C00A260B9F81410B9F81620B9F80E70B9F828
:100E2C001060B9F8125063602262E060E16118460C
:100E3C0027616661A56106F041FE724906F092FEDB
:100E4C0006F0E0FF031E40F35381782B40F3AC8196
:100E5C00B3F5B17F40F3388140F22A22934240F33C
:100E6C00B181B3F5BC6F40F3E98140F6C8129342EF
:100E7C0040F3CD81B3F55B6F40F3F18141F28C32DD
:100E8C00934240F3018242F21072934240F30D827E
:100E9C0040F2E93028E180B20202238DA28418448A
:100EAC000323208594F8202084F82230A4E74D28D1
:100EBC009DD1228D02234D322285F3E7422899D110
:100ECC0020850123EEE79847002893D0A06902689B
:100EDC00D368B3423FF468AF9847034674E71FFAF0
:100EEC0080FEA38C991C8A422FD003339A4200F0C7
:100EFC009F80238D111F7344C9B22385172902F1DA
:100F0C000103DBB298BF6054CCE7228D042310445C
:100F1C002085C7E700223C4D3C4B3D4CEA612B61E0
:100F2C00E61D14F8011B284601F042FD08B1B4423D
:100F3C00F7D10D21344801F03BFD18B10A2132489C
:100F4C0001F036FD03B0BDE8F08F4FEA0E2E0333EF
:100F5C00A4F826E0DBB2A5E72E4BA56993E80300C5
:100F6C000B0C0090ADF804108DF806302B682A4A53
:100F7C005E68964240F046816E46DFF8A8901B688A
:100F8C00DFF8A4A04B45DFF8A480244F16F8011B12
:100F9C0029D10123B5F8FC002B74C21802F03F02D2
:100FAC00B5F8FE309BB29A42FAD0D5F8F830195405
:100FBC0095F8D810A5F8FC205AF8212092F8393071
:100FCC0092F83A00034303F02103212B40F0928066
:100FDC000DF107039E423FF4C2AE2B6816F8011BBD
:100FEC001B684B45D5D0284698470028F0D1B6E66B
:100FFC007404002020010020AD260008692600089A
:10100C004805002000002041D80400206E00960006
:10101C00E0DA0008BCD50008292600083540000895
:10102C0008010020BD2600082401002088010020B2
:10103C00E38C228D4EEA03039A42E3847FF4D7AE0D
:10104C00012120786278E36942EA002284F82010BA
:10105C001A80A078E278002142EA00225A80207996
:10106C00627942EA00229A80A079E27942EA00226F
:10107C00DA80207A627A42EA00221A81A07AE27A35
:10108C0042EA00225A81207B627B42EA00229A814A
:10109C00A07BE27B42EA0022DA81207C627C42EA7D
:1010AC0000221A82A07CE27C42EA00225A82207D35
:1010BC00627D42EA00229A82A07DE27D42EA002211
:1010CC00DA8284F8221099E606F0F8FC7F4906F0E3
:1010DC003FFC7F4906F046FD7E4906F0F7FD7E4950
:1010EC0006F038FC06F08EFE606203B0BDE8F08FAF
:1010FC000020F9E7794BDFF840C2D86805F194037A
:10110C00C0F3022000F1040EBEF1060F4CF82130A2
:10111C0048F8217095F9EE303CD901210338814013
:10112C00013901F00201002B4FEA011136DB0120DD
:10113C00DFF808E203F01F0B0EEB030C00FA0BF0C8
:10114C005B098CF800134EF82300B5F8FE3092F8CA
:10115C0039109BB220297FF43BAFD5F8F8100B4423
:10116C00002B3FF435AF92F8381001293FF430AF23
:10117C00002101204FF0210ED08482F83810D16369
:10118C00116882F839E01362CB68908443F08003D5
:10119C00CB601DE7002B4FF00001C8DA504803F07C
:1011AC000F0318440176D0E706F088FC4D4906F091
:1011BC00D9FC4D4906F08AFD002106F0CBFB06F068
:1011CC0021FE91E706F07AFC484906F0C1FB404944
:1011DC0006F0C8FC464906F079FD464906F0BAFB14
:1011EC0006F010FE80E794F82220032A48D801A3C9
:1011FC0053F822F0010E0008FB0D00084112000804
:10120C003D120008284607226946B047A7E506F0BC
:10121C0055FC394906F09CFB384906F0A3FC3849CB
:10122C0006F054FD374906F095FB06F0EBFD5BE745
:10123C00FF20D4E54FF47F42FF202EE606F03EFC63
:10124C00314906F085FB224906F08CFC2F4906F04B
:10125C003DFD2F4906F07EFB06F0D4FD44E706F079
:10126C002DFC2C4906F074FB244906F07BFC244928
:10127C0006F02CFD284906F06DFB06F0C3FD33E7A4
:10128C004FF0FF0E70462CE606F018FC234906F0D2
:10129C005FFB1A4906F066FC214906F017FD21494F
:1012AC0006F058FB06F0AEFD1EE706F007FC1E49E3
:1012BC0006F04EFB1D4906F055FC1D4906F006FDD7
:1012CC001C4906F047FB06F09DFD0DE70000F242BD
:1012DC00000044420000694300004C4200ED00E075
:1012EC00FCEC00E0000048420000F0420080B143FA
:1012FC00000047430000CA420020BC440000C64224
:10130C0000C079440000494300C00A4400406D44C9
:10131C000000174300901C450080964300105B456D
:10132C000060BB440080C84300689C450080F943C2
:10133C0000189C450080FA437401002000E100E095
:10134C00F0B5964D83682A68D1B0D31AB3F5FA6F0D
:10135C00C0F0FA80002382600371C3708370437005
:10136C0003700446407905F0FDFB2A682B689B1A34
:10137C00F92BFBD9607905F0B1FB6379222B0ED8E0
:10138C00874AD356591C0AD0864AC3F3031152F824
:10139C00212003F00F03DA40D20700F1D8802A682D
:1013AC002B689B1A132BFBD972B6607905F0DAFB0C
:1013BC0003F09AFE4FF47A767B4B28301A68296832
:1013CC005A68D3F808E01F68FF0300F19E80A2EB77
:1013DC000E0206FB02F25F68B2FBF7F206FB01227B
:1013EC009042EBD80221607904F08EFB03F07CFE76
:1013FC004FF47A766C4B0A301A6829685A68D3F81D
:10140C0008E01F68FF036CD4A2EB0E0206FB02F28D
:10141C005F68B2FBF7F206FB01228242ECD36379E0
:10142C00222B00F2838001215D4A5E4F9D56DFF82E
:10143C007CC1C5F3031E05F00F02002307EB8E07DA
:10144C00914004E0E268581C93426FD203466A1C38
:10145C00F8D03A681142F5D0BEF1040F71D85CF89F
:10146C002E60B2681142EDD0002B5FD00023B26821
:10147C00114260D1002B59D0EC466F460DF5A07E81
:10148C00002204E0E068551C824271D22A46B368FF
:10149C000B40F7D000233A60B268114262D17B60F6
:1014AC000837BE45ECD162B6002210E0A8B1D510C9
:1014BC00635D81424FEA4303DBB202F1010238BFA4
:1014CC0043F00103282A63550CF1080C57D05DF842
:1014DC003210DCF804000029E8D10020207451B04F
:1014EC00F0BD29685A68D3F808E05F68A2EB0E02D9
:1014FC0006FB02F2B2FBF7F206FB012290423FF62A
:10150C007BAF6379222B11D88DE729685A68D3F801
:10151C0008E05F68A2EB0E0206FB02F2B2FBF7F2E8
:10152C0006FB012290423FF649AF5BE70020207496
:10153C0062B651B0F0BDE268581C9A42F6D9034627
:10154C0095E700239B68FFDE007C51B0F0BD0429B9
:10155C0012D84FF48032154802FA03F350F82120C8
:10156C0013611CE7E268581C9A4203D9034693E7BF
:10157C001A468FE7002392E700231B61FFDE627897
:10158C002378A1781344E2780B4413442279DBB21C
:10159C009A42A2D101202074CBE700BF2001002089
:1015AC00D8D70008A005002010E000E034D90008CE
:1015BC002DE9F04304460020B4F9303085B0232BDC
:1015CC008DF807108DF8090015D0B4F90030232BD5
:1015DC0020D0B4F90C30232B1BD0B4F91830232BAA
:1015EC0000F0EA80B4F92430232B08BF032011D07B
:1015FC0005B0BDE8F083002294F8843004F1340582
:10160C00012BADF80A201AD19DF8090005B0BDE8F0
:10161C00F083012000EB400004EB800104F1340561
:10162C008B7A4A7A2846496804F0DEFE232300228E
:10163C00238694F88430ADF80A20012BE4D00123E2
:10164C00B44A84F88430166894F88530A16BDBB208
:10165C00012B0ED0B1F5827F06D00122002384F835
:10166C00852084F88430CFE7E06B0028F5D1042B7B
:10167C00F3D194F885300027012B04BF052384F89F
:10168C0085300123D4F85CC00DF109000DF1070978
:10169C00BCF5005FC4F888706767A4F87230A76760
:1016AC00A4F87030A4F86A30A4F86830E066C4F886
:1016BC00649000F01F81636BD3F800E01EF0400FC4
:1016CC0005D1D3F800E04EF0400EC3F800E0276CD3
:1016DC00B7F5006F7FD0002972D0B4F86A1089B2C8
:1016EC0001296DD04F460121B4F86A309BB223B961
:1016FC00B4F872309BB2002B39D0E1B1B4F86A3037
:10170C009BB2C3B1636BD3F808E01EF0020F12D08A
:10171C00397801371973B4F86A30013B9BB2A4F8DD
:10172C006A30B4F86A1089B2002947D1E36DB3F579
:10173C00005F00F0F180B4F872309BB28BB1636B38
:10174C00D3F808E01EF0010F0BD00121D3F80CE008
:10175C00B4F8723080F800E0013B9BB20844A4F866
:10176C00723013689B1BB3F57A7FBDD375E7E36DBD
:10177C00B3F5005F00F0AF80636B9A68D20600F19E
:10178C00EC80012233460221284608F053FC024625
:10179C0000287FF462AF33462846802108F04AFCCB
:1017AC00002800F0CE802022D4F888301343C4F8EF
:1017BC008830C4F8882050E702202BE70021BAE7D4
:1017CC009DF8071002AF1973B4F86A30013B9BB255
:1017DC00A4F86A3087E7002900F0A680B4F86A10F4
:1017EC0089B2012900F0A080CE46BCF5005F4FF015
:1017FC00010766D0B4F86A1089B221B9B4F8721036
:10180C0089B20029B9D097B1B4F86A1089B271B114
:10181C00996889070BD500273EF8021BD960B4F8EC
:10182C006A10013989B2A4F86A10B4F86A10B4F8D5
:10183C00721089B269B19968C9070AD50127D3F822
:10184C000CC0B4F8721020F802CB013989B2A4F89C
:10185C0072101168891BB1F57A7FCBD3FDE6C7B145
:10186C00B4F86A1089B2A1B19968890711D53EF80C
:10187C00021BD960B4F86A10013989B2A4F86A1055
:10188C00B4F86A70BFB2002F59D1196841F4805175
:10189C001960B4F8721089B269B19968C9070AD590
:1018AC000127D3F80CC0B4F8721020F802CB013920
:1018BC0089B2A4F872101168891BB1F57A7FBFF454
:1018CC00CCAEB4F86A1089B20029C8D1B4F8721041
:1018DC0089B20029C3D1012233461146284608F0AB
:1018EC00A9FB002849D0D4F8883043F00203C4F88F
:1018FC008830B2E64DF6FF78636BD3F800E00EEA61
:10190C00080EC3F800E0D3F800E04EF4005EC3F814
:10191C0000E0D1E620010020636BD3F800E04EF428
:10192C00805EC3F800E006E7BDF807108646D96074
:10193C00B4F86A10013989B2A4F86A1055E7002787
:10194C00A7E7E36B002B7FF488AE626B0393D3683D
:10195C00039393680393039B7FE64DF6FF71D4F8D2
:10196C00882042F00202C4F888201A680A401A60E3
:10197C001A6842F400521A6003E7636BDA6892B299
:10198C00ADF80A20BDF80A20F7E600BF2DE9F04FAC
:10199C00944C0546606B8BB00028884691461E46D9
:1019AC00BDF85070C0F28C80236D216EB4F90C0020
:1019BC001A68854222EA01021A603DDAB4F90EE097
:1019CC00F04539DAA9B201EB090B1FFA88F21FFABC
:1019DC008BFB02EB060A0BF1FF3C02920FFA8CFC1C
:1019EC001FFA8AF202F1FF3ABCF1000F03920FFAD0
:1019FC008AFA21DBBAF1000F1EDB002DBCBF0021DF
:101A0C000FFA8BF9B8F1000F3DDB6045DCBF401AD3
:101A1C000FFA80F9D64503DC029BAEEB030636B217
:101A2C0006FB09F5B6B2029A00961FFA89F36D48C7
:101A3C0002F06EFC55B9236D226E19680A431A60C8
:101A4C00636B002B24DB0BB0BDE8F08F636B4FEAAC
:101A5C001728002BFFB20BDB624E4146304601F0DB
:101A6C003BF83946304601F037F8013DF5D1E2E755
:101A7C004146206AFFF79CFD3946206AFFF798FD26
:101A8C00013DF5D1D7E70023BDF90C600293BCE70B
:101A9C00236AB3F90020232A00F08A80B3F90C20C2
:101AAC00232A7AD0B3F91820232A68D0B3F924203A
:101ABC00232A56D04FF6FF721A860BB0BDE8F08F72
:101ACC000DF11C0B00230122616A5846D4F820A0AA
:101ADC0001F0DEF99BE8070004AB83E80700BAF9D4
:101AEC0000300599232B9DF818E09DF819206DD036
:101AFC00BAF90C0023286BD0BAF918C0BCF1230F2B
:101B0C0068D0BAF924B0BBF1230F08BF032012D060
:101B1C00013358D0013062D0BCF1FF3F5CD0BBF137
:101B2C00FF3F7FF441AF032003464FF0230C03EB40
:101B3C0043032AF823C0AEF10103B3FA83F300EB9D
:101B4C0040000AEB80005B0983724160427280F8AE
:101B5C0008E00AF1340004F047FC2323AAF83030E3
:101B6C0022E701224FF6FF7400201F499C8483F862
:101B7C002C2083F82E2083F82D0099629AE70122FD
:101B8C004FF6FF74002018491C8383F8202083F83B
:101B9C00222083F82100D96188E701224FF6FF74D7
:101BAC00002011499C811A759A755875196179E74D
:101BBC0001224FF6FF7400200B491C801A729A7296
:101BCC00587259606AE72323AAF800300020B2E764
:101BDC000120B0E70220AEE702200346A5E7012072
:101BEC000346A2E7D804002000093D0001207047FD
:101BFC001622024B4FF0FF301A607047BC050020D4
:101C0C00FEE700BF0020704700207047012070479E
:101C1C004FF4005300204B60704700BF4FF0FF3073
:101C2C00704700BF0C4910B40B681844EFF30882DE
:101C3C00904208D8094A0A4C121B904203D2086001
:101C4C0010BC184670470C214FF0FF33054A18465C
:101C5C00116010BC704700BF08000020005000202D
:101C6C0000040000BC05002080220449044B886855
:101C7C00C3F8842108B103F0E5BF704724010020AC
:101C8C0000E100E04021034A034BC2F8841158687C
:101C9C0003F0D8BF00E100E0240100202021034A1A
:101CAC00034BC2F88411186803F0CCBF00E100E0CC
:101CBC0024010020036882B01A68D20708D41A687D
:101CCC00900705D41A68510702D41A68120701D577
:101CDC005B680193019B02B0704700BF002800F0C5
:101CEC0098812DE9F04190F9581088B04D1C0DD019
:101CFC00022900F022835D4B01E091421CD093F944
:101D0C000C201D46541C03F10C03F6D1002490F951
:101D1C0059104F1C0DD0032900F00D83544B01E0DA
:101D2C0091420BD093F90C201D46561C03F10C0369
:101D3C00F6D108B0BDE8F0812C69E8E72B69002BDF
:101D4C00F7D0002CF5D09C4204D00023036008B0DF
:101D5C00BDE8F081474B04609C4200F07481464B17
:101D6C009C4200F08981454B9C4200F09F810446C7
:101D7C00C1F3031003F0C0FA94F959104F1C0ED0A4
:101D8C00032900F0DF823A4B02E0914200F04581DA
:101D9C0093F90C201D46561C03F10C03F5D17F233F
:101DAC0003261725012201F00F0102FA01F1344A32
:101DBC000595069604919169013B41F001019161F1
:101DCC00926902F001020392039A232B2CD8DFE8CC
:101DDC0013F08F0197019F01A701AF01B701BF015C
:101DEC00C701CF01D701EF01F701FF010902110271
:101DFC00190223022D0235023D0247024F025702FF
:101E0C002B002B002B005F0267022B002B002B00FA
:101E1C002B006F022400750287011A4A536823F0C5
:101E2C00E06343F080735360032504A9079504F025
:101E3C00C1FE94F95800C0F3031003F05DFA94F955
:101E4C0058104F1C20D0022900F07982074B02E079
:101E5C00914200F0EE8093F90C201D46561C03F1C4
:101E6C000C03F5D1032517260FE000BF48D9000855
:101E7C0084D900080038014000440040004800406C
:101E8C0000100240000001401726012206950C2587
:101E9C000596002601F00F0302FA03F304A904933C
:101EAC0004F088FEBB4B94F84420271D2168A06CDD
:101EBC0043F82270A561626DE36C276D94F83D5078
:101ECC006261E66126626160A060E360276105F0F3
:101EDC00FF02002D00F09E80242284F83D20CD6866
:101EEC00AD4E25F40055CD600A69656922F4405267
:101EFC003A430A61CA68A7692B4322F4B05222F014
:101F0C000C023B431343CB604B69B14223F4407347
:101F1C004B61A24BA24DD3F80480DFF890C2D3F8EA
:101F2C0004E05E685F685A6800F0D081C6F3022353
:101F3C00CEF3022EC2F30222C7F30227DCF80060B4
:101F4C00EB5C15F80EC0AA5CEF5D26FA03F326FADB
:101F5C0002F226FA0CFC26FA07F703EB830302EBDA
:101F6C0082020CEB8C0C07EB8707800003EB8303DE
:101F7C0002EB82020CEB8C0C07EB8707B3FBF0F344
:101F8C00B2FBF0F2BCFBF0FC4FF0640EB7FBF0F7C9
:101F9C00C8F3022815F80880824D26FA08F606EBDD
:101FAC00860606EB8606B6FBF0F0A5FB0363A5FBE5
:101FBC0002625B090EFB13C352090EFB12721B016A
:101FCC0032331201A5FB03633232A5FB0262A5FB7F
:101FDC0000505B09C2F3431203F0F00340091343B2
:101FEC0003EB0013202200208B600B6923F4904339
:101FFC000B614B6923F02A034B61CB6843F400530C
:10200C00CB60206484F83D2084F83E2008B0BDE805
:10201C00F081704784F83C205EE76B695D0003F04B
:10202C00070205F01005C3F301161543C3F306238D
:10203C00B8E66D696E0005F0070306F010061E4346
:10204C00C5F3011521E700252524544BDA6842F429
:10205C008042DA60DA6822F48042DA609A6942F4EB
:10206C0080429A619B6980F8445003F4804300934A
:10207C00009B80F85A407AE60125262403F5E633C6
:10208C001A6942F400321A611A6922F400321A6198
:10209C00DA6942F40032DA61DB6980F8445003F407
:1020AC0000330193019B80F85A4060E602252724F7
:1020BC0003F5E4331A6942F480221A611A6922F496
:1020CC0080221A61DA6942F48022DA61DB6980F8D5
:1020DC00445003F480230293029B80F85A4046E656
:1020EC00314A536823F0E06343F0806353609BE60E
:1020FC002D4A536843F0E06343F00103536093E6C9
:10210C00294A536823F0010343F0E06353608BE6E4
:10211C00254A536843F0E06343F00203536083E6BF
:10212C00214A536823F0020343F0E06353607BE6DB
:10213C001D4A536843F0E06343F00403536073E6B5
:10214C00194A536823F0040343F0E06353606BE6D1
:10215C00154A536843F0E06343F00803536063E6A9
:10216C00114A536823F0080343F0E06353605BE6C5
:10217C000D4A536843F0E06343F03003536053E679
:10218C00094A536823F0300343F0E06343F0100333
:10219C00536049E624010020003801400010024041
:1021AC00C4D500081F85EB51000001407C000020C5
:1021BC00664A536823F0300343F0E063536033E620
:1021CC00624A536843F0E06343F0C00353602BE66C
:1021DC005E4A536823F0C00343F0E06343F04003CE
:1021EC00536021E6594A536823F0C00343F0E0637F
:1021FC00536019E6554A536843F0E06343F4407367
:10220C00536011E6514A536823F4407343F0E06382
:10221C0043F40073536007E64C4A536823F440734D
:10222C0043F0E06343F480735360FDE5474A536821
:10223C0023F4407343F0E0635360F5E5434A53687D
:10224C0043F0E06343F440635360EDE53F4A536869
:10225C0023F4406343F0E06343F400635360E3E52D
:10226C003A4A536823F4406343F0E0635360DBE580
:10227C00364A536843F0E06343F480535360D3E52C
:10228C00324A536823F4805343F0E0635360CBE548
:10229C002E4A536843F0E06343F400435360C3E5B4
:1022AC002A4A536823F4004343F0E0635360BBE5D0
:1022BC00264A536823F0E0635360B5E5234A53681C
:1022CC0023F0E06343F000735360ADE5C6F3C22323
:1022DC00CEF3C22EC2F3C222C7F3C227DCF80060D1
:1022EC00EB5C15F80EC0AA5CEF5D26FA03F326FA38
:1022FC0002F226FA0CFC26FA07F703EB830302EB37
:10230C0082020CEB8C0C07EB8707800003EB83033A
:10231C0002EB82020CEB8C0C07EB8707B3FBF0F3A0
:10232C00B2FBF0F2BCFBF0FC4FF0640EB7FBF0F725
:10233C00C8F3C2282EE6064B03E5054CE7E401255D
:10234C000E46A2E5002301261D462BE500000140A8
:10235C00004400402DE9F84F7E4C7F48D4F80080B3
:10236C0001E0092B06D010F90C3F5D1CF9D10020BF
:10237C00BDE8F88F4368002BF9D0784D8A4691461A
:10238C00294605F1140051F8046B5EB1724A01E064
:10239C00092B53D012F90C3F5F1CF9D10022336882
:1023AC00934208D08142EED16D4E96F84C30042BFE
:1023BC007AD855F823601FFA89F34FF0010C4FF0CF
:1023CC00210E20229B4605E02368A3EB0803B3F5FE
:1023DC007A7FCCD296F83930202BF5D1BAF1000F98
:1023EC00F2D05B46002BEFD096F83830012BEBD0B7
:1023FC0000235546F363316886F839E0206886F887
:10240C0038C0A6F824B0A6F826B0F38C9BB26BB3F8
:10241C00F78CB368013FBFB2B3F5805FF78405D189
:10242C0013E027683F1AB7F57A7F2CD80B6813F0A6
:10243C008003F6D02B7801354B60E6E75268AEE7A7
:10244C0027683F1AB7F57A7F1DD80B6813F0800305
:10245C00F6D02B883769C3F308034B6017BB0235E2
:10246C00D3E725682D1AB5F57A7F4CD80B6813F095
:10247C004003F6D02022002386F8392086F8383025
:10248C004846BDE8F88FC86820F4D070C860486929
:10249C0020F00100486186F8392086F8383086F83B
:1024AC003A2091E70135B0E72B4A01E0092B04D023
:1024BC0012F90C3F581CF9D159E75368002B3FF423
:1024CC0056AF254A01E0092B2DD012F90C3F591CAF
:1024DC00F9D14FF0FF3700234FF4165000210022A2
:1024EC004FF0090EC6E91401C6E916231D4886F8FB
:1024FC00617086F860E0FFF7F1FB96F84C30042B26
:10250C007FF657AF33E71D46CB6823F4D073CB600F
:10251C004B6923F001034B6186F8392086F838505B
:10252C0086F83A2050E750680028D2D00E4B9842DB
:10253C000DD00E4902E0834206D0114601F10C0287
:10254C005368002BF7D1C4E791F90C70C3E703274C
:10255C00C1E700BF2001002048D900082401002059
:10256C0008000020100000200044004084D900081E
:10257C00002003F061BE00BF002001F0C1B800BF15
:10258C00002003F059BE00BF002001F0B9B800BF15
:10259C00036E10B504461BB190F85820012A09D0DF
:1025AC000023022284F85820E36594F83D30202B58
:1025BC0007D010BDC26D002AF2D0C16D68309847AB
:1025CC00EEE72822236884F83D201A68D20703D44A
:1025DC001A6842F001021A601A6842F480621A60AA
:1025EC005A6842F440725A6010BD00BF704700BF79
:1025FC00704700BF704700BF704700BFFEE700BFC9
:10260C00012A05D0022A01D10B6803600020704713
:10261C0001600020704700BF03681847F8B51746E3
:10262C0082B105460E46002402E00134A74207D0D1
:10263C002B6816F8011B1B68284698470028F4D114
:10264C002046F8BD1446FBE7037C33B1B0F8FC2000
:10265C00B0F8FE309BB29A42FAD17047B0F8F42031
:10266C00B0F8F61092B28A42034608D0D0F8F000C7
:10267C004A1C02F03F02405CA3F8F62070474FF072
:10268C00FF307047B0F8F430B0F8F6209BB29342AC
:10269C001ABFD0F8F030985C4FF0FF30704700BF95
:1026AC00B0F8F430B0F8F600181A00F03F0070479C
:1026BC00F8B50123B0F8FC400374E21802F03F02B5
:1026CC00B0F8FE309BB29A42FAD0D0F8F830294DCF
:1026DC00195590F8D840A0F8FC2055F8242092F811
:1026EC00393092F83A20134303F02103212B01D106
:1026FC000120F8BD064620492048214B41F8240012
:10270C0006F194070222002196F9EE0043F824709A
:10271C0004F050FB96F9EE30002B07DB012203F09E
:10272C001F00184982405B0941F8232096F8D820F5
:10273C00B6F8FE3055F822209BB292F839102029B9
:10274C00D6D1D6F8F810CB18D2D092F8381001297F
:10275C00CED00021012421251068D48482F83810B1
:10276C00D16382F83950C168136241F080019484BE
:10277C00C160BDE72401002088010020354000081D
:10278C007401002000E100E003462DE9F04F4FF00A
:10279C0000090D468FB00733444E039000F1040836
:1027AC0002934FF0000318F8014B0DF1340A8DF829
:1027BC003430A6FB0423DB0803EB8302A4EB4204B6
:1027CC00E4B204F1300204F13701092C88BF0A4647
:1027DC001C460AF8012D002BEBD12F6850467B6864
:1027EC00019304F01DFB324A019B834693424DD169
:1027FC0020B90BE00134A3452F6807D03B681AF8C9
:10280C00011B284698470028F4D12F683B682E21DD
:10281C0028469847029B04449845A144C1D1002303
:10282C00039A2248D4790DAE8DF83430A0FB0423E2
:10283C00DB0803EB8302A4EB4204E4B204F13002A4
:10284C0004F13701092C88BF0A461C4606F8012DF5
:10285C00002BEBD1304604F0E3FA2F68144BD7F879
:10286C0004B080469B4517D120B90AE00134A0453D
:10287C0007D02F683B6816F8011B2846984700289C
:10288C00F4D109EB04000FB0BDE8F08F02465146BD
:10289C00284698470446B8E7024631462846D847AA
:1028AC00044609EB04000FB0BDE8F08FCDCCCCCCC6
:1028BC0029260008026D036E11680B431360436BED
:1028CC00002B00DB7047036A10B4B3F90020232AF5
:1028DC0010D0B3F90C20232A33D0B3F91820232AB3
:1028EC0021D0B3F92420232A0FD04FF6FF7210BC4D
:1028FC001A86704701224FF6FF74002016491C807F
:10290C001A729A7258725960E3E701224FF6FF74FB
:10291C00002011499C8483F82C2083F82E2083F806
:10292C002D009962E1E701224FF6FF7400200A495D
:10293C001C8383F8202083F8222083F82100D9619E
:10294C00CFE701224FF6FF74002003499C811A75D2
:10295C009A7558751961C0E700093D0070B50126DC
:10296C0082B0BDF818500468009601956469A047C0
:10297C0002B070BD30B583B0BDF8185004688DE856
:10298C00280001236469A04703B030BD704700BF25
:10299C0001F003010129417604D0032902D0836898
:1029AC00C3607047428903898281C381704700BF2D
:1029BC00F0B5C36985B00446002B38D00A292BD05A
:1029CC000D2926D01A7A914223DB587A814220DCD9
:1029DC005D688A1A05EBC205AA78A2B1E87890B1B5
:1029EC00A07E00284ED1277EB4F91060B4F91220D5
:1029FC00A08AB4F816E00B468DE8014002973146E8
:102A0C002046FEF70BF82979228A237E01FB03234B
:102A1C002382012005B0F0BD002202829B7A428AFB
:102A2C00017E01FB03234382012005B0F0BD0A297E
:102A3C004AD00D29EDD0827E002A3FD0007EB4F919
:102A4C00105000EB4002B4F90C6005EB4202B242AC
:102A5C0031DD1D46628A238202EBC00212B2628211
:102A6C00E78AA68A0B46029029468DE8C0002046CC
:102A7C00FDF7D4FF237E228A03EB430302EB4303CF
:102A8C002382C6E795F90500B4F91060277E02444D
:102A9C0007FB0262B4F90C00824209DD002222829B
:102AAC0016469A7A638A02FB073212B262829FE759
:102ABC00B4F912209CE7B4F91220D1E7B0F9105008
:102ACC00B0F91220007ECBE7428A017E038202EB32
:102ADC00C10343829DE700BF436B002BC0F2AA8069
:102AEC0030B40C46026C456D116814F0800F836C89
:102AFC000CBFA94329431160C56D196821EA050172
:102B0C001960C16D1D682943196061066ED4456D4D
:102B1C00116821EA05011160C56D196821EA0501EA
:102B2C001960C16D1D682943A50619607DD4456DDA
:102B3C00116821EA05011160C56D196821EA0501CA
:102B4C001960C16D1D6829431960E10668D4456D93
:102B5C00116821EA05011160C56D196821EA0501AA
:102B6C001960C16D1D6829432507196053D4456D43
:102B7C00116821EA05011160C56D196821EA05018A
:102B8C001960C16D1D682943196061073ED4456DFC
:102B9C00116821EA05011160C56D196821EA05016A
:102BAC001960C16D1D682943A507196029D4456DAD
:102BBC00116821EA05011160C56D196821EA05014A
:102BCC001960C16D1D6829431960E10713D5416D6A
:102BDC00146821431160C16D1A6830BC22EA0102ED
:102BEC001A60C26D19680A431A607047416D156806
:102BFC002943116090E7446D116821EA04011160CA
:102C0C00E9E7416D156829431160D5E7416D1568F9
:102C1C0029431160C0E7416D156829431160ABE78A
:102C2C00416D15682943116096E7416D156829437C
:102C3C00116081E7006AFEF7BBBC00BFF0B50E1E49
:102C4C0083B00ADBB0F90C500446B54205DD002A0E
:102C5C0003DBB0F90E50954201DC03B0F0BD1F460A
:102C6C0003681546DB689847012320680093AAB2D5
:102C7C00B1B2C56C2046A847636B390A002B2DDB1B
:102C8C002046FFF729FFF9B22046FFF725FF2368FE
:102C9C002F4A5B6A93421CD1226D236E11680B4341
:102CAC001360636B002BD8DA236AB3F90020232A54
:102CBC0043D0B3F90C20232A34D0B3F91820232A9B
:102CCC0022D0B3F92420232A10D04FF6FF721A8693
:102CDC00C3E7204603B0BDE8F0401847206AFEF772
:102CEC0067FCF9B2206AFEF763FCD0E701224FF6CD
:102CFC00FF74002017499C8483F82C2083F82E2025
:102D0C0083F82D009962E0E701224FF6FF74002052
:102D1C0010491C8383F8202083F8222083F821009B
:102D2C00D961CEE701224FF6FF74002009499C813E
:102D3C001A759A7558751961BFE701224FF6FF7421
:102D4C00002004491C801A729A7258725960B0E7BC
:102D5C00C128000800093D002DE9F04F0446B0F9E8
:102D6C000C0083B08842BDF93060BDF834703FDD93
:102D7C00B4F90E5095423BDD1FFA81FE0EEB030BAE
:102D8C001FFA82FC1FFA8BFB0CEB060A0BF1FF38C7
:102D9C001FFA8AFA0FFA88F80AF1FF39B8F1000F16
:102DAC000FFA89F924DBB9F1000F21DB0029BCBF34
:102DBC004FF0000E0FFA8BF3002ABCBF4FF0000C43
:102DCC000FFA8AF64045DCBFA0EB0E0003B24D456E
:102DDC00DCBFA5EB0C0636B206FB03F52068B6B2D9
:102DEC000096C66C624671469BB22046B04715B938
:102DFC0003B0BDE8F08F636B3E0A002BFFB20ADB19
:102E0C0031462046FFF768FE39462046FFF764FE40
:102E1C00013DF5D1ECE73146206AFEF7C9FB394696
:102E2C00206AFEF7C5FB013DF5D1E1E7002923DB64
:102E3C0070B5B0F90C5082B08D42044605DD002A05
:102E4C0003DBB0F90E50954201DC02B070BD1D469B
:102E5C0001230668009389B292B2F66CB047636B9B
:102E6C00290A002B09DB2046FFF736FE2046E9B283
:102E7C0002B0BDE870402FE67047206AFEF798FB61
:102E8C00206AE9B202B0BDE87040FEF791BB00BF0A
:102E9C0010B4A2F10104B4FA84F464094160027222
:102EAC00847203B9437210BC704700BFF0B5436B1A
:102EBC0087B0002B044607DB226D216E136823EAD2
:102ECC000103136007B0F0BD00230122616A68465C
:102EDC00256AFFF7DDFF9DE8070006AB03E9070055
:102EEC00B5F900300499232B9DF814E09DF81520BA
:102EFC0031D0B5F90C0023282FD0B5F91860232E4A
:102F0C002DD0B5F92470232F08BF03200ED0013328
:102F1C0027D001302CD0013627D00137CCD103205B
:102F2C000346232603EB430325F82360AEF101038C
:102F3C00B3FA83F300EB400005EB80005B0983726E
:102F4C004160427280F808E005F1340003F04CFA5D
:102F5C0023232B86B0E70020E8E70120E6E70220D8
:102F6C00E4E7232300202B80E0E702200346D8E788
:102F7C0001200346D5E700BFF0B503686B4ADB6858
:102F8C0087B0934204460D462BD1436B002B45DB97
:102F9C00226D216E136823EA01031360F5B994F8CE
:102FAC006910E26C606E136823EA0003136020461C
:102FBC00FFF792FDE26C2168636E496A15685C4804
:102FCC002B43814213600ED1226D236E11680B438B
:102FDC001360636B002B0ADB07B0F0BD94F868102C
:102FEC00DFE79847DAE72046884707B0F0BD236A49
:102FFC00B3F90020232A00F08380B3F90C20232A94
:10300C0073D0B3F91820232A61D0B3F92420232AD2
:10301C004FD04FF6FF721A8607B0F0BD03AF0023F6
:10302C000122616A266A3846FFF732FF97E80700EB
:10303C008DE80700B6F900309DF808E0232B9DF8C9
:10304C0009206AD0B6F90C00232868D0B6F918709C
:10305C00232F66D0B6F924C0BCF1230F08BF032080
:10306C000FD0013357D0013020D001375BD0BCF1E9
:10307C00FF3F8DD103200346232703EB430326F8A0
:10308C002370AEF10103B3FA83F300EB400006EBBF
:10309C0080005B0983724160427280F808E006F19F
:1030AC00340003F0A1F92323338671E70120034692
:1030BC00E2E701224FF6FF7400201E499C8483F83E
:1030CC002C2083F82E2083F82D009962A1E7012291
:1030DC004FF6FF74002017491C8383F8202083F8D7
:1030EC00222083F82100D9618FE701224FF6FF746B
:1030FC00002010499C811A759A755875196180E7E2
:10310C0001224FF6FF7400200A491C801A729A7231
:10311C005872596071E7232333800020B1E70120F6
:10312C00AFE70220ADE702200346A5E7B92E000861
:10313C00C128000800093D002DE9F04F0568DFF8B3
:10314C00C4E1D5F80CB089B0F34504460E461746D9
:10315C009846BDF94890BDF84CA020D1436B002B8C
:10316C003DDB226D216E136823EA010313608DE8A9
:10317C00000643463A466D6931462046A847236807
:10318C005E4A5B6A93420DD1226D236E11680B432C
:10319C001360636B002B0ADB09B0BDE8F08FD847D6
:1031AC002568E4E72046984709B0BDE8F08F236A0C
:1031BC00B3F90020232A00F08B80B3F90C20232ACA
:1031CC007BD0B3F91820232A69D0B3F92420232A01
:1031DC0057D04FF6FF721A8609B0BDE8F08F0DF18B
:1031EC00140B00230122616A5846256AFFF750FE32
:1031FC009BE8070002AB83E80700B5F900300399A0
:10320C00232B9DF810E09DF811206ED0B5F90C0021
:10321C0023286CD0B5F918C0BCF1230F69D0B5F9CF
:10322C0024B0BBF1230F08BF032011D001335AD0B7
:10323C00013023D0BCF1FF3F5DD0BBF1FF3F1BD170
:10324C00032003464FF0230C03EB430325F823C064
:10325C00AEF10103B3FA83F300EB400005EB800001
:10326C005B0983724160427280F808E005F134001A
:10327C0003F0BAF823232B86256872E70120034656
:10328C00E0E701224FF6FF7400201D499C8483F86F
:10329C002C2083F82E2083F82D00996299E70122C7
:1032AC004FF6FF74002016491C8383F8202083F806
:1032BC00222083F82100D96187E701224FF6FF74A1
:1032CC0000200F499C811A759A755875196178E719
:1032DC0001224FF6FF74002009491C801A729A7261
:1032EC005872596069E723232B800020B0E7012036
:1032FC00AEE70220ACE702200346A3E7C128000892
:10330C0000093D00B92E00082DE9F0470568DFF8EB
:10331C00F0E1D5F80CA088B0F24504460E461746ED
:10332C009846BDF8409026D1436B002B53DB226DA1
:10333C00216E1368D5F81CA023EA010313606D4BB2
:10334C009A451FD101238DE808023A46434631467F
:10335C006D692046A8472368674A5B6A93421DD172
:10336C00226D236E11680B431360636B002B1ADB09
:10337C0008B0BDE8F087D04725685E4BD5F81CA097
:10338C009A45DFD043463A46CDF800903146204668
:10339C00D0472368584A5B6A9342E1D0204698474D
:1033AC0008B0BDE8F087236AB3F90020232A00F0A7
:1033BC008B80B3F90C20232A7BD0B3F91820232A55
:1033CC0069D0B3F92420232A57D04FF6FF721A86FE
:1033DC0008B0BDE8F0870DF1140A00230122616AE0
:1033EC005046256AFFF754FD9AE8070002AB83E8C4
:1033FC000700B5F900300399232B9DF810E09DF8D8
:10340C0011206ED0B5F90C0023286CD0B5F918C07A
:10341C00BCF1230F69D0B5F924A0BAF1230F08BF72
:10342C00032011D001335AD0013023D0BCF1FF3F1F
:10343C005DD0BAF1FF3F1BD1032003464FF0230CA4
:10344C0003EB430325F823C0AEF10103B3FA83F376
:10345C0000EB400005EB80005B0983724160427217
:10346C0080F808E005F1340002F0BEFF23232B8620
:10347C0025685CE701200346E0E701224FF6FF7464
:10348C0000201E499C8483F82C2083F82E2083F87E
:10349C002D00996299E701224FF6FF74002017491D
:1034AC001C8383F8202083F8222083F82100D96123
:1034BC0087E701224FF6FF74002010499C811A7592
:1034CC009A755875196178E701224FF6FF74002040
:1034DC000A491C801A729A725872596069E7232340
:1034EC002B800020B0E70120AEE70220ACE70220E1
:1034FC000346A3E769290008C128000800093D001C
:10350C00B92E00082DE9F0470568DFF8F0E1D5F891
:10351C000CA088B0F24504460E4617469846BDF8F6
:10352C00409025D1436B002B52DB226D216E13682A
:10353C00D5F818A023EA010313606D4B9A451ED1F0
:10354C008DE800033A4601236D6931462046A847B1
:10355C002368684A5B6A93421DD1226D236E116801
:10356C000B431360636B002B1ADB08B0BDE8F087CC
:10357C00D04725685E4BD5F818A09A45E0D0434655
:10358C003A46CDF8009031462046D0472368594A38
:10359C005B6A9342E1D02046984708B0BDE8F087BB
:1035AC00236AB3F90020232A00F08B80B3F90C2096
:1035BC00232A7BD0B3F91820232A69D0B3F924200D
:1035CC00232A57D04FF6FF721A8608B0BDE8F08751
:1035DC000DF1140A00230122616A5046256AFFF797
:1035EC0057FC9AE8070002AB83E80700B5F90030F6
:1035FC000399232B9DF810E09DF811206ED0B5F99E
:10360C000C0023286CD0B5F918C0BCF1230F69D07D
:10361C00B5F924A0BAF1230F08BF032011D0013350
:10362C005AD0013023D0BCF1FF3F5DD0BAF1FF3F3F
:10363C001BD1032003464FF0230C03EB430325F867
:10364C0023C0AEF10103B3FA83F300EB400005EBAA
:10365C0080005B0983724160427280F808E005F1DA
:10366C00340002F0C1FE23232B8625685DE7012080
:10367C000346E0E701224FF6FF7400201E499C84AC
:10368C0083F82C2083F82E2083F82D00996299E77B
:10369C0001224FF6FF74002017491C8383F8202069
:1036AC0083F8222083F82100D96187E701224FF6A5
:1036BC00FF74002010499C811A759A755875196110
:1036CC0078E701224FF6FF7400200B491C801A7218
:1036DC009A725872596069E723232B800020B0E757
:1036EC000120AEE70220ACE702200346A3E700BFAF
:1036FC0081290008C128000800093D00B92E0008E6
:10370C00F0B503688FB09E6959695D6890F83E20EA
:10371C00D2B2102A00F0A680402A00F0A380974A6B
:10372C0004460A401AB3AF0500F11F82944A324096
:10373C00002A00F00981934A0A40002A40F088814F
:10374C00914A0A40002A00F0E480AD0540F1E18086
:10375C00628D92B2002A00F0DC80626A511C6162B8
:10376C0012781A61638D013B9BB26385D1E0874867
:10377C0008400028DAD0AF05D8D594F83D10586829
:10378C001F4620F4E06058600D925A69C9B20D9240
:10379C001A6842F001021A600D9A1A6822F48062CB
:1037AC001A605A6810050ED594F83D20222A00F0B4
:1037BC008B8294F83D202A2A00F08682626B126874
:1037CC00526892B26285628D92B2E2B15A69520726
:1037DC0009D5626A1B69501C60621370638D27687F
:1037EC00013B9BB263857B695B0608D5636A3A69CA
:1037FC00581C60621A70638D013B9BB26385236C0D
:10380C0043F004032364236C002B40F06F82A1F17E
:10381C002802022A40F22682236B222B01D0222975
:10382C0077D100232022236384F83D2084F83E3096
:10383C00E36D1F2B02DCE36D0133E36594F8583024
:10384C00012B66D1E36D94F83D20282A61D194F8C0
:10385C003C20012A5DD0234403F16801204606F088
:10386C0075FD56E011F0011F3DD0AA0500F16481F1
:10387C00474A0A40002A4ED0414A3240002A3ED0E4
:10388C00404A0A40002A00F087806E0540F184808F
:10389C003D4A0A40002A40F0838090F83D20048D78
:1038AC0090F83E10D2B2C9B2C56A002C40F05B82CF
:1038BC00212A00F0D88240292BD1222A29D1428DED
:1038CC0092B2002A00F0BE8290F83E20402A00F00E
:1038DC003083426A511C416212781A61438D013B5C
:1038EC009BB2438515E02A4A0A40A2B1AF05C3D565
:1038FC00426CD2B21A61224A3240002AC0D1254A07
:10390C000A40002A71D1204A0A4012B1AA0500F1DE
:10391C008B810FB0F0BD194A0A40002AACD0AC051F
:10392C00AAD590F83E20C76AD0F830E090F83D4018
:10393C00D2B2222C00F0AA81002200925A69009285
:10394C009A690092009A97E7124A0A40002A40F0BE
:10395C00AC800D4A0A40002ADBD0AA05D9D5628D6D
:10396C0092B2002AD5D0626A1B69511C6162137035
:10397C00638D013B9BB26385CBE700BF0200010066
:10398C000400100080000100040001001000010080
:10399C000800010040000100AD4A0A40002AB8D0DE
:1039AC00AD05B6D5C16A90F83D20212AB1D1428D22
:1039BC0092B2002A8DD1042905D0082903D011F523
:1039CC00803F40F04482002120245A6822F4E062B7
:1039DC005A601A6842F400721A60016380F83D4024
:1039EC0090F83E3080F83E1093E76C058BD5984AE2
:1039FC000A40002A8AD190F83D20222A89D1428D92
:103A0C0092B2032A00F21981023A012AC26A40F2E8
:103A1C000E8200212025022A1A68446A14BF22F45F
:103A2C00806242F480621A605A6822F4E0625A6042
:103A3C001B69621C42622370438D013B9BB2438520
:103A4C0080F83D50016390F83E3080F83E1060E7FE
:103A5C006E057FF575AE7E4A0A40002A7FF475AE7E
:103A6C0094F83D10628DC9B292B2002A3FF451AF66
:103A7C00626A501C606212781A61628D013A92B2CD
:103A8C006285628D92B2002A7FF443AF29297FF4BC
:103A9C0040AF21252820596821F4806159602563A5
:103AAC0084F83D0084F8882033E768057FF551AF32
:103ABC00674A0A40002A7FF450AF94F83D10628D9B
:103ACC00C9B292B2002A3FF424AF626A1B69501C3F
:103ADC0060621370638D013B9BB26385638D9BB2F7
:103AEC00002B7FF416AF2A297FF413AF2220282154
:103AFC002268536823F480635360206384F83D107C
:103B0C00E36D1F2B02DCE36D0133E36594F8583051
:103B1C00012B7FF4FEAEE16D94F83D30282B7FF441
:103B2C00F8AE94F83C30012B3FF4F3AE21446831ED
:103B3C00204606F00BFCECE690F83E20402A00F004
:103B4C0089800269B2F5804F62D0026D002A00F0C4
:103B5C009580026D012A7FF48FAE426CD21102F077
:103B6C00060242F0F1021A6186E69A69996902F03E
:103B7C0004020D0653BFC168208BE16888B28842ED
:103B8C007FF4C7AE002A00F0F2800022636E84F846
:103B9C00582003B1984794F8883094F83D20DBB254
:103BAC00282A7FF4B6AE9BB2002B3FF4B2AE94F849
:103BBC003C20012A3FF4ADAE0121226884F83C1070
:103BCC001168C80703D4116841F00101116000218C
:103BDC00082529272026106820F40060106084F83E
:103BEC003D7084F83E6021646385E562658D0B91C0
:103BFC00536904F168000B93936984F83C100B93A0
:103C0C000B9B5368258543F4E0636062536080E648
:103C1C0090F83D20212A426C16BF42F0010202F0BE
:103C2C00FE02D2B21A6127E6C16A428D92B2032A11
:103C3C0050D0428D92B2022A62D0426A1B69511C4A
:103C4C0041621370438D013B9BB2438561E600BF1B
:103C5C0004000100026D002A4CD1426C02F0FE02FD
:103C6C001A6109E62022A4492046E162236384F804
:103C7C003D2084F83E30FEF78BFC4AE6426CD211B4
:103C8C0002F0060242F0F0021A61F5E5046D14B977
:103C9C00402A00F01C81046D24B90269B2F5404F32
:103CAC0000F01C81428D92B2002A40F09B80089259
:103CBC005A6908929A690892089A1A6842F4007232
:103CCC001A6000220265D7E5A26B1268526892B2A4
:103CDC00628578E5042904D0082902D011F5803FCB
:103CEC00ABD11A6822F480621A60A6E7204602F073
:103CFC007DF90EE6426C42F00102D2B21A61BBE5CC
:103D0C00042900F08B80082900F0888011F5803F91
:103D1C0000F084801A68022914BF22F4806242F4F5
:103D2C0080621A605A6822F440725A600021202482
:103D3C00426A1B69551C45621370438D0268013B36
:103D4C009BB24385436A12695D1C45621A70438DB0
:103D5C00013B9BB2438580F83D40016390F83E30B7
:103D6C0080F83E10D5E5212A7FF4A5ADA7E5012109
:103D7C00E26584F85810E26D94F83D0028287FF431
:103D8C00C8AD94F83C0088423FF4C3AD84F83C10B5
:103D9C001968C90703D4196841F0010119600021A1
:103DAC0002254FF02A0E202701261868224420F401
:103DBC000060186084F83DE084F83E7021646685EC
:103DCC00E562608D0C915D6968320C959D6984F893
:103DDC003C100C950C995968626241F4E0612085A5
:103DEC00596096E5428D92B2012A55D0428D92B21D
:103DFC00022A00F083801A6842F480621A605A68C2
:103E0C00170503D55A6842F480525A600022019279
:103E1C005A6901929A690192019A52E75A6822F4FE
:103E2C0040725A601A6842F400721A607EE7022AE5
:103E3C001A6800F0D78022F480621A601A6842F483
:103E4C0000621A605A6822F480625A6061E511259A
:103E5C002024596821F4E0615960056380F83E2004
:103E6C0080F83D4055E5042D04D0082D02D015F501
:103E7C00803F7CD100222024596821F4E0615960F4
:103E8C00196841F400711960026380F83D4090F8A4
:103E9C003E3080F83E203CE517F5803F73D0042F70
:103EAC0055D0082F53D0BEF1120F50D0C26A022A3F
:103EBC001A6814BF22F4806242F480621A600022F5
:103ECC0005925A6905929A690592059AF9E60A943F
:103EDC005A690A929A690A920A9ACDE409945A6923
:103EEC0009929A690992099A1A6842F480721A60C6
:103EFC00026D01320265BFE40000FFFFC26A0024BC
:103F0C00022A1A6864D042F400621A6003945A6957
:103F1C0003929A690392039A1A6822F480621A60D7
:103F2C005A6812057FF5CDAE5A6842F480525A6039
:103F3C00C7E6026D002A3AD1C26C012A826C60D0AD
:103F4C00C2F307221A61036D01330365E1E4002417
:103F5C001A6822F480621A6004945A6904929A696D
:103F6C000492049A1A6842F400721A60A9E61125A8
:103F7C0020215A6822F4E0625A60056380F83E40C2
:103F8C0080F83D10C5E41A6822F480621A605A6801
:103F9C0012F400622AD000241A6822F480621A609B
:103FAC0007945A6907929A690792079A89E6026DF3
:103FBC00012A2CD0026D022A7FF4ABAC90F83D2084
:103FCC00222A2BD090F83D20212A7FF4A2AC80E449
:103FDC0042F480621A6002945A6902929A690292BF
:103FEC00029A9DE742F480621A602BE706925A69A6
:103FFC0006929A690692069A1A6842F400721A603E
:10400C005FE6D2B21A61036D0233036581E4826C00
:10401C00D2B21A61036D013303657AE41A6842F473
:10402C0080721A6075E400BFB0F86A30B0F868208E
:10403C00013303F03F03A0F86A30B0F86A304FF058
:10404C00FF309BB29A4218BF0020704730B3234B0D
:10405C0090F8442053F8222092F8393092F83A1014
:10406C000B4303F02203222B18D070B492F83A3091
:10407C0090F84510202B12D0B0F86030B0F86220C8
:10408C00013303F03F03934207D0B0F86020C46DB6
:10409C009BB292B2A154A0F8603070BC704792F8F9
:1040AC003830012BE8D00125002422261368D58551
:1040BC0082F83840D46382F83A60DC6800F1450637
:1040CC0044F4807495859662DC605A692A435A617F
:1040DC00DA6842F02002DA60CEE700BF240100204B
:1040EC0008B5064B4BB1064AB2F8F430B2F8F620DC
:1040FC009B1A9B0601D0AFF3008008BD00000000A6
:10410C00DC02002070B504460D460368DB68984756
:10411C00E26C606E1368002D23EA0003136014BF79
:10412C00212120212046FEF7D7FCE26C2168636E2A
:10413C00496A15682C482B438142136008D1226DC3
:10414C00236E11680B431360636B002B04DB70BD93
:10415C002046BDE870400847236AB3F90020232AA3
:10416C000FD0B3F90C20232A32D0B3F91820232A0C
:10417C0020D0B3F92420232A0ED04FF6FF721A86D2
:10418C0070BD01224FF6FF74002018491C801A7272
:10419C009A7258725960E4E701224FF6FF740020BE
:1041AC0012499C8483F82C2083F82E2083F82D0050
:1041BC009962E2E701224FF6FF7400200B491C8341
:1041CC0083F8202083F8222083F82100D961D0E7DE
:1041DC0001224FF6FF74002004499C811A759A75D0
:1041EC0058751961C1E700BFC128000800093D00DE
:1041FC0001F00301022970B5044641762DD0032944
:10420C0033D0012915BF482528253D4B3D4BC360B4
:10421C0023682046DB689847E26C606E1368362191
:10422C0023EA000313602046FEF756FCE26C636E33
:10423C0010682946034313602046FEF74DFC2368A3
:10424C00314A5B6A93420CD1226D236E11680B4389
:10425C001360636B002B0CDB70BD294B8825C3608E
:10426C00D6E72046BDE870401847264BE825C360CA
:10427C00CEE7236AB3F90020232A0FD0B3F90C2020
:10428C00232A32D0B3F91820232A20D0B3F92420C2
:10429C00232A0ED04FF6FF721A8670BD01224FF6FC
:1042AC00FF74002019491C801A729A725872596056
:1042BC00E4E701224FF6FF74002014499C8483F834
:1042CC002C2083F82E2083F82D009962E2E701223E
:1042DC004FF6FF7400200D491C8383F8202083F8CF
:1042EC00222083F82100D961D0E701224FF6FF7418
:1042FC00002006499C811A759A7558751961C1E799
:10430C00F00040014001F000C128000800093D0008
:10431C00F8B504460F46D0F84CE0D0F864C0BDF8B0
:10432C001850DEF80010154421EA0C01CEF80010EC
:10433C00013D2A21FE1845EA0245FEF7CDFBE26C51
:10434C00636E1168013E0B431360636B46EA0746CC
:10435C00002B4FEA166144DB2046FEF7BDFBC6F38B
:10436C0007412046FEF7B8FBC6F307212046FEF7AF
:10437C00B3FBF1B22046FEF7AFFBE26C606E136844
:10438C002B2123EA000313602046FEF7A5FBE26C09
:10439C00636E11680B431360636B290E002B32DBC9
:1043AC002046FEF799FBC5F307412046FEF794FB28
:1043BC00C5F307212046FEF78FFBE9B22046FEF736
:1043CC008BFBE26C606E13682C2123EA00031360F4
:1043DC002046FEF781FBE26C636E11680B431360A1
:1043EC00F8BD206AFDF7E4F8C6F30741206AFDF733
:1043FC00DFF8C6F30721206AFDF7DAF8F1B2206A7C
:10440C00FDF7D6F8B9E7206AFDF7D2F8C5F30741F6
:10441C00206AFDF7CDF8C5F30721206AFDF7C8F82F
:10442C00E9B2206AFDF7C4F8CBE700BFA74B2DE932
:10443C00F047002908BF19460446806A61620028CB
:10444C0004DB02F04BFBA06A02F08CFBE06A02F08A
:10445C0045FBE36A222B0ED89D4AD3565F1C0AD02B
:10446C009C4AC3F3031152F8212003F00F03DA40E6
:10447C00D60700F16B82636B002B24DA256AB5F941
:10448C000000232800F09982B5F90C10232900F0C4
:10449C00DB82B5F91820232A00F0D882B5F9243034
:1044AC00232B08BF032300F08982013000F0978290
:1044BC00013100F0CD82013200F0D282013326D1DD
:1044CC0003231A46C6E2A06B02F008FBA36B222B57
:1044DC000ED87F4AD3565D1C0AD07E4AC3F3031113
:1044EC0052F8212003F00F03DA40D00700F142828A
:1044FC00606B02F0F3FA606B02F034FBE06B0028A7
:10450C0002DB002101F000FB636B002BB6DB206BA0
:10451C00002832DB704D02F0E1FA206B02F022FB36
:10452C002A682B689B1A632BFBD9206B222818D87E
:10453C00674B1B56591C14D0664AC3F3031152F82F
:10454C00212003F00F03DA40D2070AD5042900F228
:10455C0008824FF48032614E02FA03F356F82120A0
:10456C0013612A682B689B1A632BFBD902F0FAFAA9
:10457C002A682B689B1AC72BFBD923682046DB685B
:10458C009847EF21564EDFF85081E06C626E03685D
:10459C0023EA02030360636B002BC0F2D2810F0687
:1045AC00A36C226C00F1C081676D156825EA0705C4
:1045BC001560E76D1D6825EA07051D60E56D1F6830
:1045CC003D431D604D0600F1AA81676D156825EA13
:1045DC0007051560E76D1D6825EA07051D60E56D8B
:1045EC001F683D438F061D6000F19481676D15684F
:1045FC0025EA07051560E76D1D6825EA07051D60AE
:10460C00E56D1F683D431D60CD0600F17E81676D31
:10461C00156825EA07051560E76D1D6825EA07058D
:10462C001D60E56D1F683D430F071D6000F168813B
:10463C00676D156825EA07051560E76D1D6825EAA5
:10464C0007051D60E56D1F683D431D604D0700F1BA
:10465C005281676D156825EA07051560E76D1D68C1
:10466C0025EA07051D60E56D1F683D438F071D603A
:10467C0000F13C81676D156825EA07051560E76D4B
:10468C001D6825EA07051D60E56D1F683D431D602B
:10469C00CD0740F12581616D156829431160E16DED
:1046AC001A6822EA01021A60E26D19680A431A605C
:1046BC00636E0268B71C1343036096F801A03D4675
:1046CC000AF07F0909F102031E44A7E000366E01CF
:1046DC00D8D70008A00500202001002034D90008FC
:1046EC00ECD50008D4F854E0106820EA0E001060F5
:1046FC00D4F85CE0186820EA0E001860D4F85CE08E
:10470C00186840EA0E001860480600F1C380D4F81F
:10471C0054E0106820EA0E001060D4F85CE01868D1
:10472C0020EA0E001860D4F85CE0186840EA0E002D
:10473C001860880600F1A780D4F854E0106820EACD
:10474C000E001060D4F85CE0186820EA0E001860C7
:10475C00E06DD3F800E040EA0E001860C80600F1E6
:10476C008B80D4F854E0106820EA0E001060D4F866
:10477C005CE0186820EA0E001860E06DD3F800E0E9
:10478C0040EA0E00186008076FD4D4F854E01068A3
:10479C0020EA0E001060D4F85CE0186820EA0E00E5
:1047AC001860E06DD3F800E040EA0E00186048078E
:1047BC0054D4D4F854E0106820EA0E001060D4F8F9
:1047CC005CE0186820EA0E001860E06DD3F800E099
:1047DC0040EA0E001860880739D4D4F854E0106809
:1047EC0020EA0E001060D4F85CE01868C90720EAD3
:1047FC000E001860E06DD3F800E040EA0E0018607F
:10480C001FD5616D106801431160E16D1A6822EAD1
:10481C0001021A60E26D19680A431A60B54240D071
:10482C00636B15F8011B002B56DB0806A36C226C7E
:10483C007FF558AF606DD2F800E040EA0E001060D2
:10484C0056E7606D116821EA00011160DDE7606DCB
:10485C00D2F800E040EA0E001060C4E7606DD2F8B8
:10486C0000E040EA0E001060A9E7606DD2F800E0AD
:10487C0040EA0E0010608EE7606DD2F800E040EA6E
:10488C000E00106073E7606DD2F800E040EA0E0095
:10489C00106057E7606DD2F800E040EA0E0010603F
:1048AC003BE71AF0800F07EB090642D117F8091005
:1048BC0000297FF46AAE23686B4A5B6A934253D13A
:1048CC00226D236E106803431360636B002B5CDB5B
:1048DC00664BE360BDE8F087206AFCF769FE9DE754
:1048EC00656D116821EA05011160D8E6656D1768E0
:1048FC003D431560C3E6656D17683D431560ADE635
:10490C00656D17683D43156097E6656D17683D4307
:10491C00156081E6656D17683D4315606BE6656D46
:10492C0017683D43156055E6656D17683D43156086
:10493C003FE6D8F80020D8F800309B1A772BFAD92C
:10494C00B4E7206AFCF734FEE06CB1E6042908D821
:10495C004FF48032464802FA03F350F821201361D9
:10496C0089E500231B61FFDE204698473F4BE3603F
:10497C00BDE8F0870429F4D84FF480323C4802FAA1
:10498C0003F350F821201361B2E5236AB3F9002038
:10499C00232A4FD0B3F90C20232A40D0B3F9182086
:1049AC00232A2ED0B3F92420232A1CD04FF6FF72D1
:1049BC001A862E4BE360BDE8F0870023002203EB40
:1049CC00430385F8852005EB83018B7A4A7A05F140
:1049DC003400496801F008FD23232B8697E5232238
:1049EC0000232A80EAE701224FF6FF7500202149B7
:1049FC009D8483F82C2083F82E2083F82D00996257
:104A0C00D4E701224FF6FF7500201A491D8383F865
:104A1C00202083F8222083F82100D961C2E70122EB
:104A2C004FF6FF75002013499D811A759A755875BC
:104A3C001961B3E701224FF6FF750E4859721D80BC
:104A4C001A729A725860A5E70123B7E70223B5E7FB
:104A5C0001231A46232102EB420225F82210ADE76E
:104A6C0002231A46F6E700BFC1280008F0004001F7
:104A7C0034D9000800093D00074938B5A1F5A075E7
:104A8C00A1F11404E368103913B1032208469847C6
:104A9C00AC422146F4D138BDDC0200200021426A30
:104AAC0082B01368D185D1841A68D20708D41A68E9
:104ABC00900705D41A68510702D41A68120701D559
:104ACC005B680193019B02B0704700BF924B82B0B0
:104ADC009A69013842F001029A619B6903F0010363
:104AEC000193019B23282CD8DFE810F00D01050160
:104AFC00FD00F500ED00E500DD00D500CD00C300A4
:104B0C00BB00B300A900A10099008F0085007D00B7
:104B1C0075006B0063005B0053002B002B002B0017
:104B2C004B0043002B002B002B002B003D003500CD
:104B3C002D002400794A536823F0E06343F080632E
:104B4C00536002B07047754A536823F0E06343F03A
:104B5C0000735360F5E7714A536823F0E06343F048
:104B6C0080735360EDE76D4A536823F0E063536044
:104B7C00E7E76A4A536823F4004343F0E063536069
:104B8C00DFE7664A536843F0E06343F40043536045
:104B9C00D7E7624A536823F4805343F0E0635360D1
:104BAC00CFE75E4A536843F0E06343F480535360AD
:104BBC00C7E75A4A536823F4406343F0E0635360F9
:104BCC00BFE7564A536823F4406343F0E06343F471
:104BDC0000635360B5E7514A536843F0E06343F414
:104BEC0040635360ADE74D4A536823F4407343F080
:104BFC00E0635360A5E7494A536823F4407343F0DC
:104C0C00E06343F4807353609BE7444A536823F496
:104C1C00407343F0E06343F40073536091E73F4A01
:104C2C00536843F0E06343F44073536089E73B4AB5
:104C3C00536823F0C00343F0E063536081E7374AC5
:104C4C00536823F0C00343F0E06343F04003536028
:104C5C0077E7324A536843F0E06343F0C003536094
:104C6C006FE72E4A536823F0300343F0E063536040
:104C7C0067E72A4A536823F0300343F0E06343F0BC
:104C8C00100353605DE7254A536843F0E06343F03B
:104C9C003003536055E7214A536823F0080343F06F
:104CAC00E06353604DE71D4A536843F0E06343F003
:104CBC000803536045E7194A536823F0040343F093
:104CCC00E06353603DE7154A536843F0E06343F0FB
:104CDC000403536035E7114A536823F0020343F091
:104CEC00E06353602DE70D4A536843F0E06343F0F3
:104CFC000203536025E7094A536823F0010343F08C
:104D0C00E06353601DE7054A536843F0E06343F0EA
:104D1C000103536015E700BF001002400000014082
:104D2C00084B1A681168880705D55168890744BF74
:104D3C006FF0020151604FF40030012202494861CA
:104D4C005A7470473801002000040140F8B506255C
:104D5C004FF48064114E124F03E0013D4FEA4404BE
:104D6C001AD073692342F8D000237461A1B24A109F
:104D7C000133012ADBB291B2F9D103EB83039B001F
:104D8C00181D38448268002AE7D03B441B699847B9
:104D9C00013D4FEA4404E4D1F8BD00BF00040140DA
:104DAC009C010020F8B5052520240F4E0F4F736988
:104DBC00234204D1013D4FEA4404F8D1F8BD00234D
:104DCC007461A1B24A100133012ADBB291B2F9D15C
:104DDC0003EB83039B00181D38448268002AE9D03A
:104DEC003B441B699847E5E7000401409C01002007
:104DFC00064B5A69D20600D47047102204485A61F7
:104E0C00C36D002BF8D0036E5430184700040140DA
:104E1C009C010020064B5A69120700D470470822E7
:104E2C0004485A61836C002BF8D0C36C403018478F
:104E3C00000401409C010020064B5A69520700D423
:104E4C007047042204485A61436B002BF8D0836BE3
:104E5C002C301847000401409C010020064A53697D
:104E6C009B0700D47047022304485361036A002B4C
:104E7C00F8D0436A18301847000401409C01002008
:104E8C00064B5A69D20700D47047012204485A6174
:104E9C00C368002BF8D003690430184700040140A4
:104EAC009C0100202DE9F04301298BB0154600F040
:104EBC00B5800E46002472100134012AE4B296B279
:104ECC00F9D1FF290291039340F3AB8001290CBF68
:104EDC006FF01F030023022906BF6FF01B03012292
:104EEC000022042904BF6FF017030222082904BF13
:104EFC006FF013030322102904BF6FF00F03042279
:104F0C00202904BF6FF00B030522402904BF6FF06A
:104F1C0007030622802904BF6FF003030722B1F5B3
:104F2C00807F04BF00230822B1F5007F04BF042357
:104F3C000922B1F5806F04BF08230A22B1F5006F76
:104F4C0004BF0C230B22B1F5805F04BF10230C228D
:104F5C00B1F5005F04BF14230D22B1F5804F04BFDF
:104F6C0018230E22B1F5004F04BF1C230F224768F3
:104F7C000F2108269940394006FA03F3994200F0B4
:104F8C009C8000230493032302A9059301F012FED5
:104F9C0000224FEA840909EB0406B600DFF83481DD
:104FAC00AB68043646440892002B00F0828006AFB2
:104FBC003846022229469847D5F80CE0AB6897E8AA
:104FCC0003008DE8030096E80300B568F26887E8F3
:104FDC0003009DE80300089586E80300B36009927E
:104FEC00C6F80CE01DB1032239463846A8474C449C
:104FFC00A40018F904000022062101F0DBFE18F9C8
:10500C000430002B07DB012203F01F0030498240E3
:10501C005B0941F823200BB0BDE8F083002402911A
:10502C000393022907BF0423012200230022042931
:10503C0004BF08230222082904BF0C2303221029D1
:10504C0004BF10230422202904BF14230522402965
:10505C0004BF18230622802904BF1C230722B1F5A4
:10506C00807F04BF20230822B1F5007F04BF2423D6
:10507C000922B1F5806F04BF28230A22B1F5006F15
:10508C0004BF2C230B22B1F5805F04BF30230C220C
:10509C00B1F5005F04BF34230D22B1F5804F04BF7E
:1050AC0038230E22B1F5004F04BF3C230F220768B2
:1050BC005EE7DDF824E006AF81E70123C16803FA5F
:1050CC0002F28A433FF45EAF022304935BE700BF16
:1050DC0000E100E09C010020024A136801331360D8
:1050EC00704700BF200100200D4A0E49136830B4F0
:1050FC000868536895681468E4030CD45B1B4FF480
:10510C007A7230BC064902FB03F34968B3FBF1F336
:10511C0002FB003070470868536892689B1AEEE7F0
:10512C0010E000E020010020431C11D030B490B0FE
:10513C00002800F0BD806A4B01E0904209D093F941
:10514C000C201946541C03F10C03F6D110B030BCE2
:10515C00704709690029F9D0614B01E090425FD09A
:10516C0093F90C201C46551C03F10C03F6D10025B9
:10517C005B4B02E0904200F0858093F90C201C46BA
:10518C00B2F1FF3F03F10C03F4D1042241F21110F0
:10519C000B6A02FA05F523EA05050D620B6A0B6230
:1051AC000B6A034208D140F244430A6A1A4203D103
:1051BC004B6C23F400434B6441F211130A6A1A42FC
:1051CC0008D140F244430A6A1A4203D10B6823F017
:1051DC0001030B60022241F211138DF83D200A6A83
:1051EC001A4208D140F244430A6A1A4203D10B68AE
:1051FC0023F001030B603B4B994247D0B1F1804F38
:10520C0050D0394B994247D0384B994204D1384A47
:10521C00D36923F00403D36100238DF83D3095E767
:10522C006369C3F3C433023B022B54D8314A52F89E
:10523C0023503DB1042D05D0082D03D00C2D01D0E9
:10524C00182D83D1002893D101220B6A02FA05F59F
:10525C0023EA05050D62234B0A6A99420A622BD098
:10526C0041F211130A6A1A4208D140F244430A6A05
:10527C001A4203D10B6823F001030B6001238DF854
:10528C003D30A7E76369DB02DED57EE7184A9369F8
:10529C0023F400639361BFE7154AD36923F002033B
:1052AC00D361B9E7124AD36923F00103D361B3E7A1
:1052BC0005464FF08041C7E741F211130A6A1A42C2
:1052CC00CED140F244430A6A1A42C9D14B6C23F442
:1052DC0000434B64C4E7002500287FF449AFB3E7D3
:1052EC00FCD70008002C01400004004000080040DE
:1052FC00001002405CD6000886B0042845D8DFE8D0
:10530C0000F0101D2A370300214B22489A6942F005
:10531C0040029A619B6903F040030593059B06B01C
:10532C0070471B4B1C489A6942F004029A619B69B6
:10533C0003F004030193019B06B07047144B17480C
:10534C009A6942F008029A619B6903F00803029380
:10535C00029B06B070470E4B11489A6942F010023E
:10536C009A619B6903F010030393039B06B070478B
:10537C00074B0C489A6942F020029A619B6903F032
:10538C0020030493049B06B070470020C7E700BFBE
:10539C00001002400018014000080140000C0140C0
:1053AC0000100140001401402DE9F041064686B082
:1053BC00C0F30310012590460327FFF79DFFF3B2BE
:1053CC0003F00F02194C95400391CDF81080029513
:1053DC000597A269A3F10D0142F00102A261A26935
:1053EC00012902F001020192019A17D90F2E08D05F
:1053FC00133B012B05D902A901F0DCFB06B0BDE87B
:10540C00F0810B4A02A9536823F0E06343F0007368
:10541C00536001F0CFFB06B0BDE8F08104494A6847
:10542C0022F0E06242F080624A60E1E70010024044
:10543C00000001408368B3F5805F3AD0036973B113
:10544C000368826A5B68511C03F07F0381621370EE
:10545C00C38D013B9BB2C38543B1002070470268EA
:10546C00836A5268591C81621A70F1E770B5202664
:10547C0002682049D4680D6824F02004D460D468F4
:10548C00A84224F48074D460546924F0010454615B
:10549C0080F83A6020D04B68984225D08B689842AF
:1054AC0024D0CB68984223D00B69984213D00020AB
:1054BC0070BD0269836A3AB902685268C2F3080285
:1054CC0023F8022B8362C3E702685268D2B223F836
:1054DC00012B8362BCE70423074A02EB8303586960
:1054EC009A6A9047002070BD0123F5E70223F3E789
:1054FC000323F1E724010020380100202DE9F04FAF
:10550C0000238FB01746002282460E4602F0BAF8EE
:10551C00002840F0E38005460020744967B1002460
:10552C004FF00008DFF8D091013442464B46E4B20C
:10553C0001F060FFBC42F7DB02460B465046314699
:10554C0001F07CFC8946804602F002F9044601F029
:10555C00B1FD02460B464046494601F06DFC002366
:10556C000EAA02F8043D8946934680466048029292
:10557C00A0FB0423DB0803EB8302A4EB4204E4B29C
:10558C0004F1300204F13701092C88BF0A461C468D
:10559C000BF8012D002BEBD1584601F041FC824653
:1055AC0058B1544E02E00134A24506D01BF8011B41
:1055BC003046FDF7FDF90028F5D12B191C46002FBC
:1055CC0052D02E214B48FDF7F3F92346002818BF83
:1055DC0001339A46464D474E49460022464B4046BB
:1055EC0001F0DEFDCDE9000102F08AF8B0F100090E
:1055FC003EDB00224C46DDF808B08DF83420A5FBCC
:10560C000423DB0803EB8302A4EB4204E4B204F1B1
:10561C00300204F13701092C88BF0A461C460BF8EE
:10562C00012D002BEBD1584601F0FAFB804618B93E
:10563C0009E00134A04506D01BF8011B3046FDF7EC
:10564C00B7F90028F5D1484601F044FD02460B4657
:10565C00DDE9000101F0F0FB013F17F0FF07804688
:10566C008946A244B8D1534618460FB0BDE8F08F16
:10567C002D213046FDF79CF90023029C03908DF8F8
:10568C003430C9F1000BA5FB0B23DB0803EB8302C1
:10569C00ABEB420B5FFA8BFB0BF130020BF13701DA
:1056AC00BBF1090F88BF0A469B4604F8012D002B5D
:1056BC00E9D1204601F0B4FB804620B90AE00BF199
:1056CC00010BD84506D014F8011B3046FDF770F9D4
:1056DC000028F4D1039B5B441C46B4E72D210548FC
:1056EC00FDF766F906F10046054615E70000E03FB8
:1056FC00CDCCCCCCD8040020000024402DE9F04FB8
:10570C00904285B080460F461C4600F0D7809942E7
:10571C00164600F0B280A4EB0709B448FDF7C6FBAF
:10572C00A6EB080AB9F1000FB8BFC9F10009BAF12C
:10573C00000FB8BFCAF1000AD14520463A4631469F
:10574C00434600F3E48021463B4634464746A74295
:10575C0006469046CB4640F3DE804FF6FF725B1A4E
:10576C0083EAE37BABEBE37B1346B045C8BF012375
:10577C00381B80B205B205EBD57502906D10039302
:10578C00DFF868821FFA8BFB1AE0002EC0F2D8807B
:10579C00B8F90C30B34240F3D380002CC0F2D08067
:1057AC00B8F90E30A342A4B200F3CC80A5EB0B05E4
:1057BC00ABB21DB2002D2FDB013424B2BC4235DC60
:1057CC00D145E2DC002CC0F2BB80B8F90C30A3420E
:1057DC0040F3B680002EC0F2B380B8F90E30A4B2FC
:1057EC00B342E3DD012321460093B2B27F48FEF7BA
:1057FC008FFDD8F83430FF21002BC0F2A8807B48F5
:10580C00FDF76AF9A5EB0B05FF217848FDF764F964
:10581C00ABB21DB2002DCFDA039A01341644029AB2
:10582C0024B29D18BC4236B22DB2C9DDD8F8502036
:10583C00D8F8603011680B431360D8F83430002B63
:10584C0039DAD8F82030B3F90020232A00F0C380CD
:10585C00B3F90C20232A00F0B380B3F91820232AC3
:10586C0000F0A080B3F92420232A00F08D804FF69D
:10587C00FF721A8605B0BDE8F08F904201DC064637
:10588C00904601254FF6FF79584C2046FDF70EFB4C
:10589C0008EB05039B1B1BB23A46314620468DE8AC
:1058AC002002FDF759FA226D236E11680B43136029
:1058BC00636B002B59DB05B0BDE8F08F99423CDDE2
:1058CC004FF6FF76494D01373F1B28463FB2FDF797
:1058DC00EDFA224641460123009728460196FDF732
:1058EC003BFA2A6D2B6E11680B4313606B6B002B0C
:1058FC00E1DA2B6AB3F90020232AA9D10122002076
:10590C003B491E801A729A7258725960A0E7A742DE
:10591C00D3463FF722AFE31B9BB21DB205EBD57507
:10592C00B04502934FEA65053B464646274618DBD1
:10593C004FF6FF721C46039222E70C461F46BFE748
:10594C00A4B233E7012322460093B1B24EE7D8F854
:10595C002000FBF72DFEFF21D8F82000FBF728FED6
:10596C0024E701221C4603920AE7236AB3F90020BC
:10597C00232A7FF46DAF00211D4AA3F800901D72FD
:10598C009D7259725A6063E701224FF6FF74002032
:10599C0017499C8483F82C2083F82E2083F82D0043
:1059AC00996264E701224FF6FF74002010491C83B2
:1059BC0083F8202083F8222083F82100D96151E755
:1059CC0001224FF6FF74002009499C811A759A75C3
:1059DC005875196141E701224FF6FF740020044904
:1059EC001C801A729A725872596031E7D8040020E0
:1059FC0000093D002DE9F0478846824615464FF6D2
:105A0C00FF77012699463E4C82B02046FDF74EFAB0
:105A1C002B464246514620468DE8C000FDF79CF9C6
:105A2C0009F1FF32424412B22B46514620468DE812
:105A3C00C000FDF791F93346424651462046019786
:105A4C00CDF80090FDF788F9691E514409B2424621
:105A5C0033460197CDF800902046FDF77DF9226D75
:105A6C00236E11680B431360636B002B02DB02B0D7
:105A7C00BDE8F087236AB3F90020232A11D0B3F9CB
:105A8C000C20232A31D0B3F91820232A1FD0B3F9C4
:105A9C002420232A0DD04FF6FF721A8602B0BDE8DF
:105AAC00F0870021174A1F801E729E7259725A602D
:105ABC00E5E701224FF6FF74002012499C8483F81D
:105ACC002C2083F82E2083F82D009962E3E7012225
